:020000040800F2
:10000000381300209D0100085F26000865230008C2
:100010005D260008250300082D35000800000000BB
:100020000000000000000000000000006F2F00082A
:10003000010400080000000061260008712F00087C
:10004000B7010008B7010008B7010008B7010008B0
:10005000B7010008B7010008B7010008B7010008A0
:10006000B7010008B7010008B7010008B701000890
:10007000B7010008B7010008B7010008B701000880
:10008000B7010008B7010008B7010008B701000870
:10009000B7010008B7010008B7010008B701000860
:1000A000B7010008B7010008B7010008B701000850
:1000B000B7010008B7010008B7010008B701000840
:1000C000B7010008B7010008B7010008B701000830
:1000D000B701000881340008B7010008D9340008CE
:1000E000B7010008B7010008B7010008B701000810
:1000F000B7010008B7010008B7010008B701000800
:10010000B7010008B7010008B7010008B7010008EF
:10011000B7010008B7010008B7010008B7010008DF
:10012000B7010008B7010008B7010008B7010008CF
:10013000B7010008B7010008B7010008B7010008BF
:10014000B7010008B7010008B7010008B7010008AF
:10015000B7010008B7010008C1230008B701000873
:10016000B7010008B7010008B7010008B70100088F
:10017000B7010008B7010008B7010008000000003F
:10018000B7010008B7010008DFF80CD000F0B8F89C
:1001900000480047F93D0008381300200648804712
:1001A00006480047FEE7FEE7FEE7FEE7FEE7FEE75C
:1001B000FEE7FEE7FEE7FEE7E92F000889010008F9
:1001C0002DE9F05F0546002092469B46884606468C
:1001D000814640241BE0284641464746224600F01F
:1001E0007EF853465A46C01A914110D3114618461C
:1001F000224600F065F82D1A67EB01084F462246AB
:100200000120002100F05CF817EB00094E41201E90
:10021000A4F10104DFDC484631462A46434600F09B
:1002200000B830BCBDE8C09F40EA01039B0703D083
:1002300009E008C9121F08C0042AFAD203E011F825
:10024000013B00F8013B521EF9D27047D2B201E0E7
:1002500000F8012B491EFBD270470022F6E710B5CB
:1002600013460A4604461946FFF7F0FF204610BD24
:1002700010B5044604E00B7800F8013B03B1491CBB
:10028000521EF8D2204610BD30B504460020034669
:1002900000E05B1C934203D2E05CCD5C401BF8D0D5
:1002A00030BD30B505460020034600E05B1C93429C
:1002B00005D2EC5CC85C201A01D1002CF6D130BD0F
:1002C000202A04DB203A00FA02F100207047914016
:1002D000C2F1200320FA03F3194390407047202A0B
:1002E00004DB203A21FA02F00021704721FA02F3E0
:1002F000D040C2F1200291400843194670470000E7
:10030000064C074D06E0E06840F0010394E8070062
:1003100098471034AC42F6D3FFF73AFFE8410008A3
:1003200008420008FEE70000FCB505464FF6FF76E0
:1003300000200C46ADF8006048F205078DF8040077
:1003400020E000BF15F8010B8DF8040001A9084654
:1003500002F01FF8BDF800009DF8041080EA0120AB
:10036000ADF800005FF00000BDF800100A0402D5EF
:1003700087EA410101E006EA4101401CADF80010A6
:100380000828F1DB641EDDD26946084601F0EBFF68
:10039000BDF80000FCBD000070B5124D4FF40064C4
:1003A00000222146284600F0C7FB0F4E01221146CD
:1003B000304600F0C1FB0DA003F0BAF841F27070B6
:1003C00000F08CF901222146284600F0B5FB0022FE
:1003D0000121304600F0B0FBBDE8704006A003F0FC
:1003E000A7B8000000140048000400480D0A445457
:1003F000556F6666000000000D0A4454556F6E008C
:1004000070477047124A117F1248012901D0032911
:100410000BD1036843F400630360036823F40063B3
:100420000360036843F400730360022901D00329C9
:100430000BD1016841F480510160016821F48051C1
:100440000160016841F4806101600020107770470D
:1004500054000020002002400849C20703D04A6926
:1004600042F004024A61800703D5486940F4004025
:100470004861486940F4803048617047002002407C
:10048000CA070B494A6902D022F4006201E042F433
:1004900000624A614A6960F3CA024A61486940F0F1
:1004A00002004861486940F48030486170470000AC
:1004B00000200240054910B54C6944F001044C612C
:1004C0000260BFF36F8F436010BD00000020024048
:1004D000094A10B55469402344F480245461EFF371
:1004E000108272B610C910C05B1E13F0FF03F9D161
:1004F00082F3108810BD00000020024070B5054650
:1005000000F020FB0646184C08E0681C06D000F0FE
:1005100019FB801BA84201D3032070BD2069C003D2
:10052000F3D421694CF2FA300140A06900F0004098
:10053000084311D00D494A6802434A60810F04D034
:10054000A16900F040421143A161810002D020F076
:1005500040402061012070BD2069C00701D001200A
:100560002061002070BD00000020024054000020E7
:1005700030B5B3F5804F05D06FF0704140F82210D0
:10058000002030BD8C690B688D6823434C688989D5
:10059000240144EA0524234343EA014150F8223070
:1005A000014C23401943E9E70000F0CF30B50A6859
:1005B00050F8223023F0010340F822308C68082CD8
:1005C00026D000234A682243CC681C430B6922438F
:1005D0001A434B691A438B691A43CB691A430B6A56
:1005E0001A434B6A1A438B6A1A43CB6A1A430B6B42
:1005F0001A438B6B1A430B6850F82340094D2C406B
:10060000224340F823200A6BB2F5801F02D007E096
:100610004023D7E7096819B1016841F480110160EE
:10062000002030BD8004E0FF70B5D1E9003443EA1A
:1006300004138C688D89240244EA054423430D8AFF
:10064000114C00EB820204EB05552B430D7D660136
:1006500006EB05652B438D692B43556805F0404536
:100660002B4353600268D2020BD54268098A22F4F8
:10067000700204EB01511143426822F470020A43F4
:100680004260002070BD00000000F0FF10B590F83F
:1006900025100024022903D00421C16301241AE09B
:1006A00001680A6822F00E020A6001680A6822F0F6
:1006B00001020A6090F84410036C01F01C02012151
:1006C00001FA02F25A6080F82510002180F8241007
:1006D000816B01B18847204610BD000070B504460B
:1006E00000F030FA0546601C02D00448406804441B
:1006F00000F028FA401BA042FAD370BD4800002049
:100700002DE9F05F054635488946017801290CD06E
:100710000127804607704CF2503B5846FFF7EEFE2B
:1007200006004FF0000A03D053E0022000F05AB850
:1007300051464046C8F804A0294C226892050ED5BF
:10074000216821F4007121602168490505D52168DF
:1007500021F480612160032109E0077708E0226825
:10076000520504D5216821F48061216002210177BE
:100770002868012807D04FF0FF31C9F8001040F277
:10078000FA7BAF681EE06868FFF766FE5846FFF721
:10079000B5FE0646606948F204018843606116E0D0
:1007A00038466968FFF76CFE4CF25030FFF7A6FE42
:1007B0000600606920EA0B00606102D0C9F8007091
:1007C00005E07F1CD5E902010844B842E8D8FFF7EC
:1007D00019FE88F800A03046A8E700005400002069
:1007E0000020024030BCBDE8C09F000003484169C2
:1007F00041F00041416100207047000000200240AC
:100800002DE9FF5F254C0646904620789A46012840
:100810000BD0012020704CF2503B5846FFF76EFE83
:1008200007004FF0000904D02AE0022004B000F0D5
:1008300039B84846C4F80490194D2968490504D5CB
:10084000286820F4806028600220207726B1012EDD
:1008500009D0022E07D00CE0424653460198FFF71C
:1008600029FE012612E041460198FFF731FE022ED3
:100870000AD05846FFF742FE4FEA0007FFF7C2FDD5
:1008800084F800903846D1E74FF480265846FFF7A9
:1008900035FE07466869B0436861EFE75400002001
:1008A0000020024030BCBDE8C09F00000649002087
:1008B0004A69002A07DA054A8A60054A8A60496956
:1008C000002900DA0120704700200240230167451B
:1008D000AB89EFCDF0B587B014216846FFF7BDFCBA
:1008E0001948016800292DD1012101601748016DC7
:1008F00041F001010165006D022400F00100059046
:100900004FF69B70002503260C278DE8F100694601
:100910000F4800F025F84FF23F008DE8F1006946DE
:100920000C4800F01DF83F208DE8F10069460A48A8
:1009300000F016F84FF6B3708DE8F10069460748ED
:1009400000F00EF807B0F0BD40000020001002409B
:10095000001000480014004800180048000C00482F
:100960002DE9F84FDFF898B100234FF0010C4FF05C
:10097000030A4FF00F090BF1040EB9E00CFA03F46F
:10098000224070D04D68022D01D0122D0ED1DD080D
:1009900000EB8508D8F820505E07F70E09FA07F635
:1009A000B5430E69BE402E43C8F8206007685E005C
:1009B00091F804800AFA06F508F00308AF4308FA34
:1009C00006F848EA0708C0F800804F68012F05D0F4
:1009D000022F03D0112F01D0122F13D1D0F808808D
:1009E000CF6828EA0508B74047EA08078760D0F8CB
:1009F00004800F7928EA0408C7F300179F4047EAEC
:100A000008074760D1F804806FEA0807BF0706D1DE
:100A1000C76AA743C8F3C0049C403C43C462C4688F
:100A2000AC438D68B5402543C5604C68E4005ED595
:100A3000344C256E45F001052566246E23F0030530
:100A400004F001040094304C2E19B4689D072F0F58
:100A500009FA07F5AC43B0F1904F05D02B4DA842F1
:100A600004D101251CE042E0002519E0284DA842F0
:100A700001D1022514E0274DA84201D103250FE042
:100A8000254DA84201D104250AE0244DA84201D1F8
:100A9000052505E0224DA84201D1062500E00725E5
:100AA000BD402543B560DBF800405D464E68944389
:100AB000F60300D514432C60DEF8004075464E68FE
:100AC0009443B60300D514432C600D4D08352C68B3
:100AD0004E689443F60200D514432C60084D0C3543
:100AE0002C684E689443B60200D514432C605B1CFE
:100AF0000A6832FA03F57FF441AF00F013B8000042
:100B000000040140001002400000014000040048C1
:100B100000080048000C004800100048001400487D
:100B20000018004818BCBDE8E08F42690A4201D0B5
:100B300081627047816170470AB18161704781624B
:100B4000704700000148806870470000480000209E
:100B50000248816842681144816070474800002063
:100B600010B50024032000F071F8002000F008F810
:100B700008B1012401E000F025F8204610BD000076
:100B800070B50E4E05460024706898B14FF47A7126
:100B9000B1FBF0F00A490968B1FBF0F001F07BF914
:100BA00040B9102D06D200222946501E00F02EF822
:100BB000356000E00124204670BD000048000020A0
:100BC00074000020094808B5016E41F0010101667A
:100BD000016E01F001010091816D41F0805181654C
:100BE000806D00F08050009008BD000000100240B1
:100BF000002809DB00F01F0201219140400980001C
:100C000000F1E020C0F8001170470000F0B40E4B76
:100C10001B680C46C3F30223C3F10705042D00D95A
:100C20000425191D072901D2002300E0DB1E01263F
:100C300006FA05F1491E214099409E40761E164055
:100C40003143F0BC02F084BC0CED00E0064900F03A
:100C5000070208684FF6FF03184040EA0220034AE3
:100C600010430860704700000CED00E00000FA053A
:100C7000BFF34F8F05480168054A01F4E061114355
:100C80000160BFF34F8F00BFFDE700000CED00E0F7
:100C90000400FA051649B0F5007F0868C0F341204A
:100CA00009D0022805D0086820F4C06040F48060B4
:100CB0000860002070470128FBD0086820F4C0605D
:100CC00040F4007008600B483222006850430A4A22
:100CD000B0FBF2F0401C00E0401E4A69520501D50D
:100CE0000028F9D148694005E3D50320704700008A
:100CF000007000407400002040420F00024841682C
:100D000041F4007141607047007000400248006883
:100D100000F4C06070470000007000402DE9F84FFB
:100D2000044600270088E54D3E46010504F1200BEE
:100D30001DD5606E78B1B0F5800F11D0B0F5000F01
:100D400004D0B0F5400F22D001270FE0E86840F44E
:100D50008030E8601BE00021201D01F083FC03E0EF
:100D60000021584601F014FD070010D03E462088AF
:100D7000C00426D5A06EC0B1B0F1807F1AD0B0F10A
:100D8000007F0DD0B0F1407F19D0012718E0D5F8D1
:100D90008800616E20F440000843C5F88800E6E74B
:100DA000E86840F48030E86009E00021201D01F08F
:100DB00059FC03E00021584601F0EAFC0746F7B170
:100DC0003E46206880033AD5A86D4FF00008C00069
:100DD00009D4A86D40F08050A865A86D4FF00108B7
:100DE00000F080500090DFF8D8A2DAF8001041F44B
:100DF0008071CAF80010FFF7A5FE814610E0D5F813
:100E00008800A16E20F040700843C5F88800D8E73C
:100E1000FFF798FEA0EB0900022801D9032705E09F
:100E2000DAF80000C005F3D5002F7CD04FEA0706A2
:100E3000B8F1000F03D0A86D20F08050A86520788D
:100E4000C00707D0D5F88800A16B20F00300084345
:100E5000C5F888002078800707D5D5F88800E16BB1
:100E600020F00C000843C5F888002078400707D51B
:100E7000D5F88800216C20F030000843C5F88800C0
:100E80002078000707D5D5F88800616C20F0C000F5
:100E90000843C5F888002078C00607D5D5F8880033
:100EA000A16C20F440700843C5F8880020788006C3
:100EB00007D5D5F88800E16C20F440600843C5F8F8
:100EC00088002088800507D5D5F88800E16D20F4DA
:100ED00040200843C5F888002088400507D5D5F88C
:100EE0008800216E20F440100843C5F8880020785F
:100EF000400607D5D5F88800216D20F440500843FE
:100F0000C5F888002078000607D5D5F88800616DFF
:100F100020F440400843C5F888002088C00509D562
:100F2000D5F8880000E01CE0A16D20F440300843B3
:100F3000C5F8880020884FF0006780044FF0806873
:100F40004FD5D5F88800E16E20F040600843C5F821
:100F50008800E06EB8423CD1E86840F48010E86058
:100F60003FE0D5F8900010F4407015D0D4F884100C
:100F7000814211D0D5F89000D5F8901020F440703F
:100F800041F48031C5F89010D5F8901021F48031EB
:100F9000C5F89010C5F89000C00710D0FFF7D2FD3B
:100FA000074641F2883906E0FFF7CCFDC11B4945F1
:100FB00001D903263CE7D5F890008007F4D5D5F891
:100FC0009000D4F8841020F440700843C5F89000D5
:100FD0002EE7404505D10121201D01F043FB00B162
:100FE00006462068000317D5D5F88800216F20F049
:100FF00040600843C5F88800206FB84204D1E86813
:1010000040F48010E86007E0404505D10121201D33
:1010100001F028FB00B106462068400317D5D5F83B
:101020008800616F20F040600843C5F88800606F59
:10103000B84204D1E86840F48010E86007E0404519
:1010400005D10121201D01F00DFB00B106462088CD
:1010500040041AD5D5F88800A16F20F0405008430D
:10106000C5F88800A06FB0F1805F03D0B0F1005FD9
:1010700005D00AE00221201D01F0F4FA03E002216C
:10108000584601F085FB00B106462088000407D5CC
:10109000D5F88800E16F20F080400843C5F888004B
:1010A0002068C00307D555F8880FD4F8801020F0C9
:1010B000004008432860304600F004B800100240A9
:1010C0000070004018BCBDE8E08F00002DE9F0473B
:1010D0000F46050058D0404E306800F00700B84277
:1010E00009D2306820F0070038433060306800F0E3
:1010F0000700B84248D12878384CC0072CD068681F
:10110000032811D0022812D0216898B1490500297E
:101110003ADAA16821F003010143A160FFF712FD53
:10112000804641F2883910E021688901EFE72168A3
:101130008903ECE78907EAE7FFF704FDA0EB080164
:10114000494502D90320BDE8F087A068696800F02E
:101150000C00B0EB810FEFD12878800705D5A0688F
:10116000A96820F0F0000843A060306800F0070094
:10117000B8420BD9306820F007003843306030683F
:1011800000F00700B84201D00120DCE728784007D2
:1011900005D5A068E96820F4E0600843A0602878DD
:1011A000000706D5A068296920F4605040EAC10014
:1011B000A06000F03FF8A168094AC1F30311515C37
:1011C00001F01F01C8400749086007480068BDE8F2
:1011D000F047FFF7D5BC000000200240001002409D
:1011E000A04100087400002048000020054806497E
:1011F00000688968054AC1F30221515C01F01F01B2
:10120000C84070477400002000100240E041000810
:101210000548064900688968054AC1F3C221515C46
:1012200001F01F01C8407047740000200010024008
:10123000E041000870B52549002318468A68CC684B
:1012400012F00C0204F00306214C4FEA640509D0A9
:101250000C2A05D0042A32D0082A00D1284670BDB5
:10126000012E10D10B681B0704D4D1F89430C3F3BE
:10127000032302E00B68C3F30313164E56F8233022
:10128000DAB10C2AEBD1C86800F00300022818D0AC
:10129000032818D01846CA68CB68C2F30212C3F3F9
:1012A00006234343521CB3FBF2F2C868C0F341600B
:1012B000401C4000B2FBF0F070BD184670BD2046E7
:1012C00070BD2046E7E72846E5E700000010024031
:1012D0000024F400B04100082DE9F84304006ED06A
:1012E000FD4DA86800F00C06E86800F003072078C0
:1012F000C00663D576B10C2E01D1012F0AD0A069AA
:101300000028286878D040F001002860FFF71AFC18
:1013100080465BE02868800702D5A0690028DED0FF
:10132000216A2868000703D5286800F0F00004E06F
:10133000D5F89400F02202EA1010814216D908462E
:1013400001F0AAFA00283AD1286840F00800286085
:101350002868216A20F0F000084328606868E16985
:1013600020F47F4040EA0120686015E0286840F0E2
:10137000080028602868216A20F0F00008432860EF
:101380006868E16920F47F4040EA01206860206AD3
:1013900001F082FA0028D6D1FFF74CFFA968CF4AA6
:1013A000C1F30311515C01F01F01C840CC49086032
:1013B000CC480068FFF7E4FB00287DD12DE0C9E0B0
:1013C000FFF7C0FBA0EB0800022876D8286880074A
:1013D000F6D5286840F0080028602868216A20F0C7
:1013E000F000084328606868E16920F47F4040EA23
:1013F0000120686011E0FFE720F001002860FFF79E
:10140000A1FB804606E000BFFFF79CFBA0EB0800B5
:101410000228DAD828688007F6D42078C00740D0A0
:10142000082E18D00C2E01D1032F14D06068B0F50F
:10143000803F17D0B0F5A02F286817D020F4803057
:101440002860286820F4802028606068E0B1FFF7F9
:1014500079FB804614E02868800322D56068002864
:1014600078D01EE0286840F48030EDE740F480201A
:101470002860F7E7FFF766FBA0EB08006428A4D814
:1014800028688003F6D50CE0FFF75CFB804605E09A
:10149000FFF758FBA0EB0800642896D82868800363
:1014A000F6D4207880073BD5042E11D00C2E01D124
:1014B000022F0DD0E06801E03EE19FE0002828689F
:1014C0001ED040F480702860FFF73CFB07460CE01C
:1014D000286840050CD5E0680028C1D008E000BFAE
:1014E000FFF730FBC01B022893D828684005F7D5CA
:1014F0006868217C20F0F85040EA016068600FE0E5
:1015000020F480702860FFF71DFB074605E000BF50
:10151000FFF718FBC01B022870D828684005F7D4D5
:101520002078000729D560690028D5F8940012D0EA
:1015300040F00100C5F89400FFF704FB074604E003
:10154000FFF700FBC01B022858D8D5F8940080078D
:10155000F6D512E029E120F00100C5F89400FFF76C
:10156000F1FA074605E000BFFFF7ECFAC01B0228BE
:1015700044D8D5F894008007F6D42078400768D581
:10158000A86D0027C00008D4A86D40F08050A86561
:10159000A86D012700F08050009053480168C905EC
:1015A00012D40168814641F480710160FFF7CAFAE4
:1015B000804605E0FFF7C6FAA0EB080002281DD818
:1015C000D9F80000C005F5D5A068012817D0052876
:1015D000D5F8900018D020F00100C5F89000D5F89B
:1015E000900020F0040000BFC5F89000A06841F210
:1015F0008839D0B1FFF7A6FA804611E06BE0D5F844
:10160000900040F00100EFE740F00400C5F89000C2
:10161000F5E700BFFFF796FAA0EB080149455AD855
:10162000D5F890008007F5D50EE0FFF78BFA8046DD
:1016300006E000BFFFF786FAA0EB080149457AD81B
:10164000D5F890008007F5D41FB1A86D20F0805028
:10165000A865A06AF0B30C2E75D00228286820F087
:101660008070286004D0286810F0205F51D054E0CA
:10167000FFF768FA064604E0FFF764FA801B0228C9
:1016800059D828688001F7D4D4E90B016FF00F0214
:1016900002EB01110843A18F5204490802EB4151AA
:1016A000626B41EA0221084394F840104FF07E42F9
:1016B000490802EB41610843A16B090940EA414036
:1016C000E9680A4A11400843E860286840F08070E1
:1016D00028600DE06BE02EE000100240A041000801
:1016E0007400002048000020007000408C809DF9AC
:1016F000E86840F08070E860FFF724FA044604E0F0
:10170000FFF720FA001B022815D828688001F7D5BA
:101710004DE0E86820F00300E860E86825490840EB
:10172000E860FFF70FFA044609E000BFFFF70AFA86
:10173000001B022803D90320BDE8F88303E02868D2
:101740008001F3D433E00128F6D0E868E26A00F0C3
:101750000301914229D1216B00F070020901103977
:10176000914222D1626B00F4FE41B1EB022F1CD1F9
:10177000A26B00F40031072A01D0012200E0002210
:10178000914212D1A18F00F4C00249084905A1F588
:101790000011914209D194F8401000F0C06049084E
:1017A0004906A1F10071814201D00120C4E7002067
:1017B000C2E70000FFFFEEFE2DE9F041040005D076
:1017C0000025A56294F85D0018B107E00120BDE88E
:1017D000F08184F85C50204600F044F8022384F83D
:1017E0005D302068016821F040010160E0684FF43D
:1017F000E066B04201D9002101E04FF48051B0F51C
:10180000706F02D0B04200D0A562276B012227B9C9
:10181000B04201D9236300E02263D4E901031843F5
:10182000D4E9043633431843238B03F4007318437D
:10183000E3691843236A1843A36A184323681860AE
:10184000636B606AA66918430427E36807EA1646D3
:1018500033431843084321684860256684F85D20B7
:101860000020B4E710B586B0044614216846FEF7A0
:10187000F4FC1349206888421FD11248816D41F45D
:1018800080418165816D01F480410591C16C41F019
:101890000201C164C06C694600F0020005904FF47B
:1018A00070400090022001900020029003200390DD
:1018B000052004900448FFF753F806B010BD00005F
:1018C0000038004000100240000400482DE9F84FA5
:1018D000044640680025984616460F464FF0040B14
:1018E000B0F5827F01D1A06888B194F85C0001282E
:1018F00018D0012084F85C00FFF724F9814694F8A1
:101900005D004FF0000A01280ED0022594E084F813
:101910005DB013460A462046CDF8008000F05AF923
:1019200000F093B80220FBE7002F72D0002E70D099
:1019300084F85DB0C4F860A02764A4F84460A4F8FB
:101940004660C4F838A0A4F83CA0A4F83EA0C4F8AF
:101950004CA0C4F850A0E0684FF4E06188422068D1
:10196000426802D922F4805201E042F4805242607F
:10197000A068B0F5004F04D12068026822F48042CC
:10198000026020680268520603D4026842F04002F6
:101990000260E06888421DD93FE020688168C9077D
:1019A0000BD0007B216C0870206C401C2064B4F8C4
:1019B0004600401EA4F846000CE0FFF7C3F8A0EB79
:1019C0000901414503D3B8F1FF3F03D03BE0B8F133
:1019D000000F38D0B4F846000028DED121E020689E
:1019E0008168C9070BD0C068216C0880206C801CFE
:1019F0002064B4F84600401EA4F846000DE0FFF74E
:101A0000A1F8A0EB0901414504D3B8F1FF3F04D090
:101A100019E010E0B8F1000F15D0B4F84600002826
:101A2000DDD14A464146204601F0F1F808B12020B8
:101A30002066206E00B10125012084F85D0084F845
:101A40005CA028466CE70325F6E718BCBDE8E08FEC
:101A50002DE9F84F044690F85C0000271D46164615
:101A6000894601280DD04FF0010B84F85CB0FFF7D8
:101A700069F8804694F85D00BA46012804D0022730
:101A80009FE0022000F0A3B8B9F1000F6FD0002E44
:101A90006DD0032084F85D00C4F860A0C4F83890CD
:101AA000A687E687C4F840A0A4F844A0A4F846A0FE
:101AB000C4F850A0C4F84CA0A068B0F5004F04D101
:101AC0002068016841F4804101602068016849068E
:101AD00003D4016841F040010160E068B0F5E06FB7
:101AE000606823D908B1012E1CD1A06B2168008841
:101AF000C86006E020688168890709D5A16B09885C
:101B0000C160A06B801CA063E08F401EE08709E0ED
:101B1000FFF718F8A0EB0800A84202D3681C01D018
:101B200046E0ADB3E08F0028E4D136E008B1012EE5
:101B300030D1E08F0128A06B03D921680088C860EC
:101B40000FE021680078087314E0E08722E0206845
:101B50008168890714D5E18F0129A16B08D909880B
:101B6000C160A06B801CA063E08F801EEDE727E0C2
:101B700009780173A06B401CA063E08F401EE4E76E
:101B8000FEF7E0FFA0EB0800A84202D3681C01D0DA
:101B90000EE06DB1E08F0028D9D14246294620469B
:101BA00001F06FF808B120202066A06810B105E0B0
:101BB000032706E02068C16880680090206E00B1AD
:101BC000012784F85DB084F85CA038465AE718BC59
:101BD000BDE8E08F2DE9F05F044690F85C00002737
:101BE0000A9E1D4692468B464FF0010901280ED0F1
:101BF000012084F85C00FEF7A5FF804694F85D00A4
:101C0000616801280CD0B1F5827F07D102E0022083
:101C100000F011B9A16809B9042801D0022700E138
:101C2000BBF1000F24D0BAF1000F21D005B394F816
:101C30005D00042802D0052084F85D0000202066A5
:101C4000C4F840A0A4F84650A4F84450C4F838B0F2
:101C5000E587A587E0642065E0684FF4E06188428D
:101C600001D8012D06D92068426822F4805205E08F
:101C70000127D6E02068426842F480524260206822
:101C80000268520603D4026842F040020260E06833
:101C90008842606845D908B1012D3AD1A06B21680E
:101CA0000088C860A06B801CA063E08F401EE087A6
:101CB0002FE02068816889070FD5E18F69B1B9F1FC
:101CC000010F0AD1A16B0988C160A06B801CA063C1
:101CD000E08F401EE0874FF0000920688168C90747
:101CE0000FD0B4F8461061B1C068216C0880206C38
:101CF000801C2064B4F84600401EA4F846004FF053
:101D00000109FEF71FFFA0EB0800B04201D3701CD1
:101D100075D1E08F0028CCD1B4F846000028C8D196
:101D200076E008B1012D6CD1E08F0128A06B08D9B5
:101D300021680088C860A06B801CA063E08F801EB3
:101D400007E0216800780873A06B401CA063E08F57
:101D5000401EE08755E02068816889071AD5E18F29
:101D6000C1B1B9F1010F15D1E18F0129A16B07D9DB
:101D70000988C160A06B801CA063E08F801E06E014
:101D800009780173A06B401CA063E08F401EE087C0
:101D90004FF0000920688168C90728D0B4F84610C0
:101DA00029B3B4F84610012914D9C068216C088001
:101DB000206C801C2064B4F84600801EA4F8460005
:101DC000B4F84600012810D82068416841F48051D9
:101DD00041600AE0007B216C0870206C401C20648C
:101DE000B4F84600401EA4F846004FF00109FEF783
:101DF000A9FEA0EB0800B04202D3701C01D018E08D
:101E0000BEB1E08F0028A6D1B4F846000028A2D1C8
:101E100042463146204600F034FF10B10127202011
:101E20002066012084F85D00002084F85C003846BC
:101E3000EEE60327F5E730BCBDE8C09F70B5154658
:101E40000E46040003D094F8450010B107E00120CD
:101E500070BD002084F84400204600F01AF804F118
:101E600008012068FEF7A2FB3146A2682068FEF751
:101E7000DBFBD4E901022946E36AFEF779FBA1689E
:101E8000206850F8212042F0010240F82120002073
:101E900070BDFEF71FBD10B5401EB0F1807F01D3AD
:101EA000012010BD4FF0E02460610F21601701F0A8
:101EB0004FFB0020A06107202061002010BD70476B
:101EC000704700002DE9F04102680446D0691168AE
:101ED000936810F00F0F4FF000055BD003F0010680
:101EE00001F49077374369D0C70707D0CF0505D5F0
:101EF00001271762E26F42F00102E267820708D50C
:101F0000DA0706D0276802223A62E26F42F0040242
:101F1000E267420708D5DA0706D0236804221A626E
:101F2000E26F42F00202E26702070AD501F02002E6
:101F3000324306D0236808221A62E26F42F0080298
:101F4000E267E26F002A32D0800605D5880603D505
:101F5000216E09B120468847E06F216889684906EB
:101F600001D4000725D5204601F0FAF820688168E1
:101F7000490619D5816821F040018160E06E98B171
:101F800020498163E06EFEF781FB00280FD0E06EF0
:101F9000816B06E0860611D58E060FD5216E1EE0F8
:101FA0002046BDE8F04108472046FFF789FFBDE81D
:101FB000F0812046FFF784FFE567F8E7C60209D500
:101FC0005B0207D54FF4801010622046BDE8F04157
:101FD000FFF775BF030605D50B0603D5616E002913
:101FE000DED1E4E74006E2D54806E0D51168204698
:101FF00021F04001116020216167656600F0B1F9B0
:10200000D5E700004D31000810B5040002D0606F24
:1020100010B107E0012010BD002084F870002046B8
:1020200000F026F8242060672068016821F0010193
:102030000160204601F0A4F80128ECD0606A10B1DC
:10204000204600F0F3FF2068416821F49041416090
:102050002068816821F02A0181602068016841F0D0
:10206000010101602046BDE8104001F043B80000C6
:10207000F0B587B0044614216846FEF7EEF84848EC
:1020800022680025474902240326824221D1C86DD7
:1020900040F00100C865C86D00F001000590C86CF3
:1020A00040F04000C864C86C00F040000590FEF7A6
:1020B00025FEF0018DE871000820049069463A4839
:1020C000FEF74EFC002211464620FEF79FFD4620FB
:1020D00022E0364B07274FF090409A4220D10A6EFB
:1020E00042F480420A660A6E02F480420592CA6C8B
:1020F00042F00102CA64C96C01F0010105914FF47C
:10210000C0618DE8F2006946FEF72AFC0022114604
:102110002520FEF77BFD2520FEF76AFD07B0F0BD08
:10212000234B9A42FAD18A6D42F480228A658A6DE5
:1021300002F480220592CA6C42F00102CA64CA6CA1
:1021400002F001020592CA6C42F00402CA64CA6C31
:1021500002F004020592CA6C42F00202CA64C96C21
:1021600001F00201059140218DE8F2006946FEF779
:10217000F7FB30208DE8F10069460E48FEF7F0FBD2
:1021800001AA009482E8F00069460B48FEF7E8FBDC
:10219000002211462720FEF739FD2720BCE700006A
:1021A0000080004000100240001800480038014044
:1021B0000048004000080048000400482DE9F84F9E
:1021C0000446806F9B4616460D4620286AD1EDB125
:1021D000E6B194F87000012864D0012084F8700002
:1021E0004FF00008C4F87C802220A067FEF7AAFC0C
:1021F000A4F858608246A4F85A60A0684FF480534F
:10220000FF21984208D122691AB118E0012000F09C
:102210004BB840F2FF1112E07F2270B1B0F1805F45
:1022200010D0A4F85C8000BFB4F85C70984201D173
:10223000206970B12E4600250CE0266936B9A4F855
:102240005C10F1E7216909B13F21F8E7A4F85C20AF
:10225000EAE7002607F0FF09B4F85A00E0B1534658
:10226000002220212046CDF800B001F0D9F808B1B5
:102270000320CCE72068808C56B100EA090006F8FC
:10228000010B00BFB4F85A00401EA4F85A00E3E75F
:10229000384025F8020BF5E72020A06784F870800D
:1022A0000020B4E70220B2E718BCBDE8E08F2DE9BA
:1022B000F8430446406F1F4616460D4620284ED16F
:1022C000CDB1C6B194F87000012848D0012084F83F
:1022D00070004FF00008C4F87C8021206067FEF792
:1022E00031FCA4F850608146A4F85260A068B0F5B3
:1022F000805F03D004E00120BDE8F883206910B1BD
:102300002E46002510E000260EE08021204601F038
:1023100087F8B8B9C6B116F8010B21680885B4F87A
:102320005200401EA4F85200B4F852004B464FF041
:10233000000200970028E8D14FF04001204601F04C
:102340006FF830B10320D7E735F8020BC0F308006F
:10235000E3E72020606784F870800020CCE702204B
:10236000CAE77047FEE770B500230C8863F30F02DD
:10237000012505FA03F6344206D0C3F10F0605FA2B
:1023800006F1114361F30F025B1C102BF1DB02809D
:1023900070BD70B500230C7863F30702012505FAC0
:1023A00003F6344206D0C3F1070605FA06F11143DD
:1023B00061F307025B1C082BF1DB027070BD0000AB
:1023C0000D4808B50068C069C043800610D44FF4BA
:1023D0007A73012269460848FFF7F0FE0748017842
:1023E000642905D2064B9DF800205A54491C0170FF
:1023F0000148FFF767FD08BD540D002021000020B3
:102400009008002000B587B01C216846FDF725FF25
:1024100015484FF02041102201601449416000210D
:102420008160C160C0E9041281611302C161C0E929
:1024300008138162C16201634163816301640F20FB
:10244000FF230090CDE90103CDE903021120CDE97E
:102450000501002269460448FFF7F0FC002801D07E
:10246000FDF7CFFF07B000BD080D0020040100A05C
:10247000F0B587B014216846FDF7EFFE3248C16C15
:1024800041F01001C164C16C01F010010591C16CF3
:1024900041F00401C164C16C01F004010591C16CFB
:1024A00041F02001C164C16C01F020010591C16CB3
:1024B00041F08001C164C16C01F080010591C16CE3
:1024C00041F00101C164C16C01F001010591C16CD1
:1024D00041F00201C164C16C01F002010591C16CBF
:1024E00041F04001C164C16C01F040010591C16C33
:1024F00041F00801C164C06C00F008000590FEF7CF
:10250000FDFB124E4FF40864002221463046FEF7D0
:1025100013FB0F4F002201213846FEF70DFB01256A
:10252000CDE9004500240294694630460394FEF745
:1025300017FA0095CDE90154694638460394FEF731
:102540000FFA07B0F0BD0000001002400014004870
:10255000000400480D4810B50B4901604FF4E1310B
:102560004160002181600C22C160C0E904128161D8
:1025700001624162FFF748FD002803D0BDE810402A
:10258000FDF73FBF10BD000000800040540D00204B
:10259000124810B5104901604FF48271416000216A
:1025A0004FF44072C0E902124FF480220161C0E989
:1025B0000512C161016207224162C0E90A1201638A
:1025C00008214163FFF7F8F8002803D0BDE8104068
:1025D000FDF717BF10BD000000380040D40E0020EA
:1025E0000D4810B50B4901604FF4E1314160002105
:1025F00081600C22C160C0E904128161C161016285
:102600004162FFF701FD002803D0BDE81040FDF74F
:10261000F8BE10BD00380140D40D00200E4810B5A2
:102620000C4901604FF461214160002181600C225E
:10263000C160C0E904129201C0E906210162416251
:10264000FFF7E2FC002803D0BDE81040FDF7D9BE3B
:1026500010BD000000480040540E0020FEE7704707
:10266000704700002DE9F041444C05468846E0687B
:102670000026810728680DD0E16801F0030181423E
:1026800016D1A8B1E0686968C0F30210401C884206
:102690000ED120E0012804D0022805D0032807D15C
:1026A00008E02168890701E021684905002907DB66
:1026B00001265FE02168890302D421684903F5E718
:1026C000E1686A686FF00F0321F0730103EB0212F7
:1026D00011430143E160206820F080602060FEF734
:1026E00031FA074605E000BFFEF72CFAC01B0228AE
:1026F00037D820680001F7D4B8F1000F18D0B8F12E
:10270000010F1ED0287D4FF07E41400801EB406054
:10271000A96840EA01202169194A11400843206153
:10272000206840F080602060FEF70CFA07461AE04F
:10273000A868E9680002090940EA41402169114A94
:10274000EBE7288A1049400801EB4050A96840EAAD
:10275000012021690D4AE0E7FEF7F4F9C01B0228C9
:1027600001D9032606E020680001F5D52069A96992
:10277000084320613046BDE8F081000000100240AF
:10278000FF80FFF9FF80FDFF0000E0FFFF809FFF5B
:102790002DE9F0413D4C06468846E068002581075A
:1027A00030680DD0E16801F00301814216D1A8B173
:1027B000E0687168C0F30210401C88420ED120E02E
:1027C000012804D0022805D0032807D108E0216899
:1027D000890701E021684905002907DB012551E04F
:1027E0002168890302D421684903F5E7E16872682A
:1027F0006FF00F0321F0730103EB02121143014349
:10280000E160206820F080502060FEF79BF90746C9
:1028100005E000BFFEF796F9C01B022829D8206802
:102820008000F7D4B8F1000F15D0307C4FF07E4116
:10283000400801EB4060B16840EA01206169144A38
:10284000114008436061206840F080502060FEF72E
:1028500079F907460FE0B068F1680002090940EA1B
:10286000414061690B4AEBE7FEF76CF9C01B022897
:1028700001D9032506E020688000F5D560697169FB
:10288000084360612846BDE8F08100000010024066
:10289000FF80FFF9FF80FDFFF8B51C4D06460024C0
:1028A000A86DC00002D5FEF731FA0DE0A86D40F02A
:1028B0008050A865A86D00F080500090FEF726FAC1
:1028C000A96D21F08051A965B0F5007F04D0802E5C
:1028D00007D94FF003040AE0802E08D9A02E01D8B2
:1028E00004E001D1022402E0702E00D10124084846
:1028F000016821F0070121430160006800F0070032
:10290000A04201D00120F8BD0020F8BD0010024017
:10291000002002402DE9F8431F4F15468846044623
:102920004FF48056002231463846FEF705F9002064
:10293000401CC0B20528FBD303208DF800000A23F9
:10294000012269461548FFF783F8200C8DF8000036
:102950000A23012269461148FFF77AF8200A8DF808
:1029600000000A23012269460C48FFF771F88DF830
:1029700000400A23012269460848FFF769F8AAB215
:102980000A2341460548FEF7A1FF01223146384699
:10299000FEF7D2F8BDE8F88300040048D40E00200A
:1029A0002DE9FF5F7148724DDFF8C8B10168E86832
:1029B0004FF002090A1A2846322A408801D301281A
:1029C00000D098B92878401CC0B22870082803D9D4
:1029D000584601F0E9F809E00120E9606880014605
:1029E0008DF800906A46FF2001F094FB03A902A82D
:1029F00001F026F8DFF880A1411C4FF0000611D04D
:102A0000022811D1029C617A227AE07901EB02213D
:102A10000A348FB2FF2807D12078DFF860810228BE
:102A200004D04AE0AAF8006000F0EEB8052FFBD908
:102A3000A078617800EB012080B228812179E378C9
:102A400001EB03218AB2AA806988012900D1E880BC
:102A50008A4221D1EA8890421ED149A000F068FD47
:102A60004C49D8F800007A1F0844611DFDF7DCFBD3
:102A7000D8F800003844401FC8F800006888401C9F
:102A800068808DF80090E0788DF8010020798DF84D
:102A900002008DF8036009E08DF800908DF8013098
:102AA00020798DF80200FF208DF803006A4604218A
:102AB000FF2001F02FFBAAF8006020780328B3D193
:102AC000E8886988401C8142AED1A078617844468C
:102AD00000EB012085B229462FA0D8F8002000F095
:102AE00027FD2C48216800F087FF87B2394635A0C2
:102AF00000F01EFDAF420FD14FF47A775D462549B5
:102B00002846226801F0A0F830B13846FDF7E6FD0E
:102B100031A000F00DFDF2E7324900204FF482624F
:102B20000E54401C9042FBDD2F4900200E54401CE7
:102B30006428FBDB2D4806602D48AAF8006006706B
:102B40002C4806602C4806802C4806702C480068EB
:102B5000016821F0200101602A480068016821F025
:102B600020010160584601F01FF85DE730000020A9
:102B70000C00002000800008240000203800002005
:102B80000D0ACAD5B5BDB5DA2564B0FC2CB9B2259D
:102B900064B0FC00000100600D0AC9FDBCB6B3CCF6
:102BA000D0F2BDD3CAD5CDEAB3C92CD0A3D1E9BAEE
:102BB000CD3A253034782CB4FAC2EBB3A4B6C83A77
:102BC000256400000D0ABCC6CBE3D0A3D1E9BACD81
:102BD0003A253034780000000D0AD0B4C8EBB4EDCB
:102BE000CEF30000F4080020900800202800002008
:102BF000210000202C0000203C00002022000020AA
:102C0000540E0020540D00203FBCBDE8C09F2DE9AC
:102C1000F843044640684FF48276154689464FF4DF
:102C200000474FF48068B04209D1A068B84201D093
:102C3000404504D12068016821F0400101604B4605
:102C4000002280212046009500F08AF880B9606853
:102C5000B04214D1A068B84201D040450FD14B46D4
:102C600000224FF4C0612046009500F02EF830B1EC
:102C7000206E40F0200020660320BDE8F88300208D
:102C8000FBE7F8B515460E460B46009204460022B7
:102C90004FF4C05100F019F888B933460022802162
:102CA0002046009500F05CF848B9334600224FF406
:102CB000C0612046009500F008F8002804D0206E7E
:102CC00040F0200020660320F8BD2DE9F0471D46A6
:102CD00017460E4604464FF4C068DDF820900CE01D
:102CE000464501D107B9007B681C06D0FDF72AFFD5
:102CF000A0EB0900A84208D23DB1206881683140AC
:102D0000B942EDD10020BDE8F0872068416821F08C
:102D1000E00141606068B0F5827F0BD1A068B0F53A
:102D2000004F02D0B0F5806F04D12068016821F017
:102D300040010160A06AB0F5005F09D12068016818
:102D400021F4005101602068016841F400510160E4
:102D5000012084F85D00002084F85C000320D2E7A5
:102D60002DE9F0411D4617460E460446DDF8188051
:102D700008E0681C06D0FDF7E5FEA0EB0800A842BD
:102D80000BD255B12068806836EA000030D00020B0
:102D9000B842EED10020BDE8F0812068416821F002
:102DA000E00141606068B0F5827F0BD1A068B0F5AA
:102DB000004F02D0B0F5806F04D12068016821F087
:102DC00040010160A06AB0F5005F09D12068016888
:102DD00021F4005101602068016841F40051016054
:102DE000012084F85D00002084F85C000320D2E715
:102DF0000120CDE710B50446B0F1006F02D24FF0CC
:102E0000FF3010BD014603A000F092FBA4F1006466
:102E1000E00A10BD0D0A616464723D25303478000B
:102E20002DE9F04F85B04FF0000816460D460446D8
:102E30004FF0FF3ACDF81080B0F1006F01D3A0073A
:102E400001D030A003E03248844203D231A000F028
:102E50006FFB25E0600501D034A0F8E7FDF726FD03
:102E60003548274604EB86064CF25039844227D277
:102E70004FF0010BB74223D23868401C1BD0CDE97C
:102E8000008B3846FFF7B6FFCDE9020B02981038E9
:102E9000F02809D329A0029900F04AFBFDF7A6FC0F
:102EA000504605B000F060B804A96846FDF728FC5C
:102EB00010B127A015E008374846FDF71FFBD9E7FA
:102EC0004846FDF71BFBB0B118E000BFD5E9000193
:102ED000C21947EB010321460020FDF791FC38B1F0
:102EE0001EA000F025FBFDF781FC6FF00100D8E784
:102EF0000834083500E04746B442E7D3FDF776FCD6
:102F00000020CEE70D0AB7C7B7A8B5D8D6B70000DE
:102F1000002000080D0AD2FDB5BCC7F8B5D8D6B759
:102F2000B2BBBFC9B8C4D0B4000000000D0AB7C717
:102F3000D2B3BFAACDB700000000FF1F0D0ABCC668
:102F4000CBE3D2B3BDE1B9FBB3ACCFDE2C2564003B
:102F50000D0AB2C1B3FDCAA7B0DC00000D0AD0B49F
:102F6000C8EBD2ECB3A3000030BCBDE8C08F704703
:102F7000FDF7EEBD10B5B8B0442122A8FDF76DF9FC
:102F8000142133A8FDF769F988216846FDF765F932
:102F900001210804CDE92210022003242C90CDE960
:102FA0002D4114212F910721CDE93010329022A814
:102FB000FEF792F90F20CDE93304002435943694BE
:102FC000042133A83794FEF781F825200E94009051
:102FD000109413946846FDF7A1FE4FF40070FDF7BE
:102FE00059FE38B010BD00000D48016841F4700171
:102FF00001600C48016841F001010160002181601D
:103000000268094B1A4002608214C260026822F40E
:103010008022026081610249C003803908607047E4
:1030200088ED00E000100240FFFFF6EA90F824105F
:10303000C90706D001684A68836A22F400321A433D
:103040004A6090F82410890706D501684A68C36A67
:1030500022F480321A434A6090F82410490706D5BA
:1030600001684A68036B22F480221A434A6090F890
:103070002410090706D501684A68436B22F4004210
:103080001A434A6090F82410C90606D501688A6878
:10309000836B22F480521A438A6090F824108906C8
:1030A00006D501688A68C36B22F400521A438A600D
:1030B00090F82410490611D501684A68036C22F47F
:1030C00080121A434A60016CB1F5801F06D1016875
:1030D0004A68436C22F4C0021A434A6090F82410F4
:1030E000090606D501684A68806C22F40022024372
:1030F0004A607047F8B500260446C667FDF722FD12
:103100000546206800686FF07E47000708D52B460B
:1031100000224FF400112046009700F081F960B9B9
:103120002068006840070AD52B4600224FF4800132
:103130002046009700F074F908B10320F8BD202064
:103140006067A06784F870600020F8BD10B5806AE1
:103150000021A0F85A10A0F85210FEF7B1FE10BDE1
:1031600001680A6822F490720A6001688A6822F095
:1031700001028A60202181670021016670470000FA
:103180002DE9F0410546016880682B69EC69184318
:103190006B69002723431843954A0B68954C2340DD
:1031A00003430B6028684168EB6821F440511943E0
:1031B00041602968A869914201D02B6A18438B6845
:1031C00023F4306303438B608B4B29688B4899420F
:1031D0000DD1D0F8880010F0030006D0012868D087
:1031E000022864D0032851D165E001244FE0844BCC
:1031F00099420BD1D0F8880010F00C0055D004286B
:1032000057D0082853D00C2840D154E07D4B994228
:103210000BD1D0F8880010F0300046D0102848D0EC
:10322000202844D0302831D145E0774B99420BD14A
:10323000D0F8880010F0C00037D0402839D080285E
:1032400035D0C02822D136E0704B99420ED1D0F84B
:10325000880010F4407028D0B0F5807F29D0B0F5F8
:10326000007F24D0B0F5407F10D124E091420DD1F1
:10327000D0F8880010F4406017D0B0F5806F18D0F7
:10328000B0F5006F13D0B0F5406F14D01024604B30
:1032900000264FF40040914245D174B1022C0FD06A
:1032A000042C0FD0082C18D10FE00024EFE70224E3
:1032B000EDE70424EBE70824E9E7FDF797FF03E0D7
:1032C000184602E0FDF7B6FFA8B36A6802EB4201B8
:1032D000814202D8B0EB023F01D9012775E0DFF847
:1032E00034815CB1022C0CD0042C13D0082CF4D106
:1032F00050082105401846F1000105E0FDF776FF72
:103300000AE050084449F5E70023FCF759FFA0F50F
:10331000407156E0FDF78EFF6A68010E0302500807
:1033200018187141F0E7E9694FF6EF7881422FD123
:10333000092CD2D200E048E0DFE804F006092005BD
:10334000230505052600C8E7FDF750FF01E0FDF75E
:103350005FFF4100D5F8040001EB5001B1FBF0F034
:1033600080B2A0F110014145B7D84FF6F07101408D
:10337000C0F3420001432868C16026E0274968681D
:10338000EAE7FDF757FFE4E74FF480316868E3E7C9
:10339000092CA2D2DFE804F006091E052205050566
:1033A00025009AE7FDF722FF01E0FDF731FF014616
:1033B000686801EB500100BFB1FBF0F080B2A0F1F2
:1033C0001001414589D82968C8602E6638466E6666
:1033D000BDE8F081686803EB5001EDE7FDF72AFFD7
:1033E000E5E7696800EB5100B0FBF1F0E6E70000AB
:1033F00000800040F369FFEF0038014000100240F8
:103400000044004000480040004C00400050004094
:103410000024F400FFFC0F00000024F40048E80141
:103420002DE9F041984617460E460446069D08E0F1
:10343000681C06D0FDF786FBA0EB0800A8420BD85D
:1034400055B12068C06936EA000017D00020B842A4
:10345000EED00020BDE8F0812068016821F4D07131
:1034600001602068816821F001018160202060678F
:10347000A067002084F870000320EBE70120E6E756
:10348000114808B50068C069C043800618D480217F
:103490000E48FDF74AFB4FF47A73012269460A4849
:1034A000FEF78CFE0A4A0B491068B0F5082F05D2CA
:1034B0009DF800300B54401C106001E000200870A3
:1034C0000148FEF7FFFC08BDD40D002000140048A1
:1034D0002800002000010060104808B50068C0699D
:1034E000C043800615D480210D48FDF71EFB4FF424
:1034F0007A73012269460948FEF760FE094801888F
:10350000B1F5826F05D8084B9DF800205A54491C2C
:1035100001800248FEF7D6FC08BD0000540E0020D2
:103520000014004824000020F4080020FEE70000FA
:103530000FB4054B10B503A9044A029800F028F80F
:1035400010BC5DF814FB0000293A00087800002048
:103550000907090E002804DB00F1E02080F80014C0
:10356000704700F00F0000F1E02080F8141D704754
:1035700002E008C8121F08C1002AFAD1704770473C
:10358000002001E001C1121F002AFBD1704700009A
:103590002DE9FF4F8DB00F460546002606E0252891
:1035A0000BD0DDE90F1290476D1C761C287800289F
:1035B000F5D111B0304600F0F3B90024A246A1467F
:1035C0000122EC4900E0044315F8013F203B02FAD8
:1035D00003F00842F7D128782A2810D06FF02F0284
:1035E0002878A0F13001092914D80AEB8A0102EBEE
:1035F000410144F0020400EB010A6D1CF0E701CF29
:103600005FEA000A03D544F40054CAF1000A44F00A
:1036100002046D1C28782E2817D115F8010F44F0EC
:1036200004042A280ED06FF02F022878A0F1300170
:1036300009290AD809EB890102EB410100EB0109D4
:103640006D1CF2E757F8049B6D1C28786C280FD08E
:1036500006DC4C2817D068280DD06A2814D104E065
:10366000742810D07A280FD10DE044F400140AE039
:1036700044F4801401E044F440146978814202D19A
:1036800004F580146D1C6D1C2A786E2A1FD00CDC8A
:10369000632A31D004DC002A8BD0582A11D1A3E050
:1036A000642A68D0692A0CD165E0732A2ED004DC24
:1036B0006F2A73D0702A04D19BE0752A6FD0782AC4
:1036C0006ED01046DDE90F129047761C50E1C4F32E
:1036D0000250022806D0032809D0042801CF09D0BF
:1036E000066045E101CFF117C0E9006140E101CF7B
:1036F00006803DE106703BE117F8040B8DF80000F1
:1037000000208DF80100EB46012003E057F804BBD0
:103710004FF0FF3061074FF0000102D40DE008F1D7
:103720000101884649450FDA8045F8DB1BF808108F
:103730000029F4D108E008F1010188468142FADB52
:103740001BF808100029F6D1DDE90F23AAEB0800C9
:103750008146214600F039F9304400EB080604E0C8
:10376000DDE90F121BF8010B9047B8F10108F7D201
:1037700021464846F7E00A21C4F302534FF0000BFC
:103780000891022B04D001CFC117032B09D00AE006
:10379000FF1D27F00707F7E8020108E032E01FE00D
:1037A00020E000B2C117042B01D140B2C117031EA3
:1037B00071F1000307DA4FF0000CD0EB0C006CEB5A
:1037C00001012D2302E0230504D52B238DF824309D
:1037D000012303E0E30701D02023F7E7984658E0F0
:1037E0000A2110E010210EE010204FF0000B08908D
:1037F0000CE010214FF0000B44F004044FF00809D6
:10380000089103E008214FF0000B0891C4F3025324
:10381000022B04D001CF0021032B06D006E0FF1DB0
:1038200027F00707F7E8020103E080B2042B00D17C
:10383000C0B24FF0000823072BD5702A07D0DDF85F
:1038400020C08CF0100C5CEA0B0C05D00EE040237D
:103850008DF82430012308E050EA010306D030231C
:103860008DF824308DF8252002239846DDF820C0FD
:103870008CF0080C5CEA0B0C0BD150EA010301D16F
:10388000630706D530238DF824304FF00108A9F1E5
:103890000109582A04D038A20B9208AA0A920BE018
:1038A0003AA2F9E75B46089AFCF78AFC0B9B9B5C03
:1038B0000A9A521E0A92137050EA0102F2D10A9833
:1038C000ADEB000000F1200B600702D524F480343A
:1038D00001E04FF00109D94502DDA9EB0B0000E042
:1038E000002000EB0B0141440890AAEB010AE00321
:1038F00006D4DDE90F232146504600F066F8064461
:103900004FF0000908E009A911F80900DDE90F12DC
:10391000904709F10109761CC145F4DBE0030CD5A1
:10392000DDE90F232146504600F04FF8064404E03D
:10393000DDE90F1230209047761C0899481E089048
:103940000029F5DC08E00A980A990078491C0A91D8
:10395000DDE90F129047761CBBF10001ABF1010BC2
:10396000F1DC21465046DDE90F2300F01CF8064447
:103970006D1C1BE6092801003031323334353637EF
:1039800038396162636465660000000030313233AB
:10399000343536373839414243444546000000004B
:1039A00030BCBDE8C08F2DE9F041044600251E461D
:1039B0001746880404D405E039462020B0476D1C22
:1039C000641EF9D52846BDE8F0812DE9F041044692
:1039D00000251E469046C80301D5302700E0202769
:1039E000880404D505E041463846B0476D1C641E86
:1039F000F9D52846BDE8F081FCF796BC10B5002348
:103A00001A4603E0845C521C2344DBB28A42F9D399
:103A1000D843C0B210BD10B5A0F1C0400A38FEF7BF
:103A200079FF002010BD000013B54FF47A73012216
:103A300069460248FEF73BFC00981CBDD40D0020EF
:103A40002DE9F047804629488946048874B1284802
:103A50000188A14206D1274D4FF0FF370C2C07D229
:103A600025A038E004800120BDE8F0870020FBE7B6
:103A7000072228492846FCF707FC38B10C2C03D94B
:103A8000641EA4B26D1CF3E723A024E0687A297AAF
:103A9000C8F8005000EB012086B206F10C0080B29D
:103AA00040F21141A9F80000884201D920A012E09B
:103AB000A04201D925A00EE0AC19E07A162801D069
:103AC00028A008E006F10901681CFFF797FFA17A1A
:103AD000884204D028A0FFF72BFD3846C4E7E979D7
:103AE00032462CA0FFF724FD0220BDE72400002071
:103AF0003C000020F40800200D0A732D3E6D206468
:103B000061746120746F6F2073686F7274206572C6
:103B1000720000007C0800200D0A732D3E6D2064A9
:103B2000617461207374617420657272000000001A
:103B30000D0A732D3E6D207061636B616765206CAB
:103B4000656E677468206572723A00000D0A732D05
:103B50003E6D2064617461206C656E6774682065D9
:103B600072723A000D0A732D3E6D206461746120FB
:103B7000656E6420657272000D0A732D3E6D2064BF
:103B800061746120636865636B73756D2065727223
:103B9000000000000D0A532D3E4D2025782C646C4A
:103BA000656E3D256400000070B504460068174945
:103BB0004FF0FF350840B0F1005F0AD02068C0F335
:103BC0004B40B0F5006F04D011A0FFF7B1FC2846C0
:103BD00070BD214613A0FFF7ABFC626814488260F9
:103BE000206880F308880020810001F1E021C1F8FD
:103BF0008051C1F88052401C0828F5DB90472146CF
:103C00000CA0FFF795FC002070BD00000000FE2F07
:103C10000D0A696170D5BBB6A5B5D8D6B7B4EDCEDF
:103C2000F30000000D0AD7AAC8EB25303878000051
:103C3000000000200D0AD7AAC8EB25303878C3BB96
:103C4000B3C9B9A63F0000002DE9F74F044601981B
:103C5000810703D029A0FFF76BFC46E00168DFF87D
:103C6000C080C8F800104068C8F804002DA0FFF715
:103C70005FFC30A0D8F80410FFF75AFCD8F8000019
:103C80006FF00057DFF8BC90C2196FF0805A47F60A
:103C9000FF7B4A4503D300EB0A01594528D2D8F8E7
:103CA000040004F10805A84222D30299661886424E
:103CB0001ED90A462046019900F05EF8A8B921688D
:103CC000C8F800106268CB19C8F804204B4502D32D
:103CD0005144594506D2AA4204D3964202D91AA0A9
:103CE000FFF726FC002000F043B84FF0FF30FAE762
:103CF0001848416818A0FFF71BFCF6E70D0AC9FD3C
:103D0000BCB6CAFDBEDDB5C4B4E6B4A2B5D8D6B75C
:103D1000B7C7CBC4D7D6BDDAB6D4C6EB0000000017
:103D2000000000200D0AD5BBB6A5B5D8D6B73A25F8
:103D3000303878000D0A6D61696EB5D8D6B73A256E
:103D400030387800FF7F0100D0B4C8EBD6B5D5FD80
:103D5000C8B70000001000200D0AC8EBBFDABAAFE8
:103D6000CAFDB5D8D6B7B4EDCEF32530387800000B
:103D70001EBCBDE8E08F00002DE9F05F002517466E
:103D800080460C462E464FF0FF3B4FF40079DFF89B
:103D90005CA01BE0E078A178000640EA0140617871
:103DA0004A4640EA012114F8040B08434AF825006A
:103DB0006D1CADB2954208D1002501230B49404648
:103DC000FFF72EF860B908F50068361DBE42E1D352
:103DD0004DB102232A4605494046FFF721F810B1AC
:103DE000584600F005B80020FBE700007C000020EA
:103DF00030BCBDE8C09F0000FCF7B2FEFFF7BAF888
:103E0000FEF736FBFEF7ECFBFEF7FCFAFEF7C0FB15
:103E1000FEF704FCFEF79EFB4FF0C0467DA0317814
:103E2000FFF786FB80480068016841F020010160CF
:103E30002520FCF7DDFE042211462520FCF7E6FED6
:103E4000307803270025794C4FF002084FF0010924
:103E5000AA2840D0552846D084F80090DFF8D0B189
:103E6000DFF8D0A140F2E7363046401EFDD1FCF726
:103E700069FE616964318842F6D961612169491C32
:103E80002161A068002873D0B1FBF7F207FB121183
:103E90000029E9D1E168814277D140F6B831884202
:103EA00002D32178022948D0022263A16348FCF79B
:103EB000F8F900285ED0062261A16048FCF7F1F90C
:103EC0000028207859D0032802D05846FFF76CFE0E
:103ED000A5602561C8E75CA0FFF72AFB3570A560E7
:103EE00084F80080BAE75FA0FFF722FB35706448D2
:103EF000A58027700068016841F02001016027203B
:103F0000FCF776FE032211462720FCF77FFE5D4872
:103F10000068016841F0200101604620FCF768FE5E
:103F2000032211464620FCF771FEFCF735FA56488D
:103F300007220146FFF76FFD90E7A06153A0FFF74E
:103F4000F7FA59A0A169FFF7F3FA3C48A169FFF716
:103F500053FD014658A0FFF7EBFA38495846A269CD
:103F6000FFF772FE0028B0D058A0FFF7E1FAACE7E7
:103F70000DE00AE0FCF77CFEAAE70128A8D157A0D3
:103F8000FFF7D6FA84F80080A2E7E0606CE705202E
:103F9000B1FBF0F200FB121010B954A0FFF7C8FA01
:103FA000207801280AD002280CD0032892D160780A
:103FB00008B3A17881420DD0A0701CE020691E28B2
:103FC00088D303E02069B0F5967FDFD35846FFF72A
:103FD000EBFD49E7464947A0FFF7AAFA65700922B9
:103FE000434946A0FCF750F968B10722404946A072
:103FF000FCF74AF938B19AF800000028C6D0002032
:10400000FEF7CEFC30E742498AF80090206908604C
:10401000F5E700000D0A0D0AD2FDB5BCB3CCD0F215
:104020002C25642C00000000D40D0020200000206E
:10403000008000081C0000205242000000010060C7
:1040400075706461746100000D0AD7BCB1B8BDD34E
:10405000CAD5B9A4D7F7CCA8757064617461CAFDDC
:10406000BEDD00000D0AD7BCB1B8BDD3CAD53447F8
:10407000BAF3CCA8757064617461CAFDBEDD00003E
:10408000540E0020540D00200B0000600D0AB9A44E
:10409000D7F7CCA8C9FDBCB6B3CCD0F2BDD3CAD536
:1040A000CDEAB3C9210000000D0AB4FAC2EBB3A4F3
:1040B000B6C83A25640000000D0ABCC6CBE3D0A305
:1040C000D1E9BACD3A253034780000000D0ABDD3CD
:1040D000CAD5CAFDBEDDB4EDCEF300000D0AB5C8E9
:1040E000B4FDBDD3CAD5B3CCD0F200002E00000081
:1040F000900800200D0A2573000000000D0A5042B0
:1041000020444F4E45000000504220444F4E450091
:10411000180000202DE9F041184C0646682017468B
:104120000D462070062216A1601CFCF7A1F8E6716E
:10413000280A20726572002004E0395C2218401CB5
:104140009172C0B2A842F8D305F10901601CFFF7D3
:1041500055FC01466019642381721621C17205F174
:104160000C0082B205490848FEF7A1F82A463146FC
:10417000BDE8F04105A0FFF7DBB900007C08002096
:104180004343303139360000540E00200D0A4D2DC6
:104190003E532025782C646C656E3D25640000003C
:1041A00000000000000000000102030406070809E7
:1041B000A0860100400D0300801A060000350C00A7
:1041C00040420F0080841E0000093D0000127A006A
:1041D0000024F40000366E010048E801006CDC02A7
:1041E0000000000001020304084200080000002053
:1041F0007C00000070350008844200087C0000202C
:10420000BC12000080350008000000000000000023
:10421000000000000000000000000000000000009E
:10422000000000000000000000000000000000008E
:10423000000000000000000000000000000000007E
:10424000000000000000000000000000000000006E
:10425000100000000100000000000000000000004D
:10426000000000000000000000000000010000004D
:1042700000000000000000000000000000093D00F8
:04428000000000003A
:040000050800018965
:00000001FF
